{
	"data": {
		"bytecode": {
			"linkReferences": {},
			"object": "600a60c0818152693638333935383239344b60b01b60e05260808181526101406040526101009283526931322f30362f3230323360b01b6101205260a092909252600190819061004f9082610130565b50602082015160018201906100649082610130565b505050348015610072575f80fd5b50604051610543380380610543833981016040819052610091916101ef565b5f55610206565b634e487b7160e01b5f52604160045260245ffd5b600181811c908216806100c057607f821691505b6020821081036100de57634e487b7160e01b5f52602260045260245ffd5b50919050565b601f82111561012b57805f5260205f20601f840160051c810160208510156101095750805b601f840160051c820191505b81811015610128575f8155600101610115565b50505b505050565b81516001600160401b0381111561014957610149610098565b61015d8161015784546100ac565b846100e4565b602080601f831160018114610190575f84156101795750858301515b5f19600386901b1c1916600185901b1785556101e7565b5f85815260208120601f198616915b828110156101be5788860151825594840194600190910190840161019f565b50858210156101db57878501515f19600388901b60f8161c191681555b505060018460011b0185555b505050505050565b5f602082840312156101ff575f80fd5b5051919050565b610330806102135f395ff3fe608060405234801561000f575f80fd5b506004361061004a575f3560e01c8063733476ca1461004e5780639854895114610076578063a5cc88041461008c578063d270bc951461009d575b5f80fd5b61006161005c36600461021c565b6100a5565b60405190151581526020015b60405180910390f35b61007e610100565b60405161006d929190610276565b5f545b60405190815260200161006d565b61008f5f5481565b5f6100b16002836102a3565b156100f85760405162461bcd60e51b815260206004820152601360248201527222b610373ab6b2b9379037379032b9903830b960691b604482015260640160405180910390fd5b506001919050565b60018054819061010f906102c2565b80601f016020809104026020016040519081016040528092919081815260200182805461013b906102c2565b80156101865780601f1061015d57610100808354040283529160200191610186565b820191905f5260205f20905b81548152906001019060200180831161016957829003601f168201915b50505050509080600101805461019b906102c2565b80601f01602080910402602001604051908101604052809291908181526020018280546101c7906102c2565b80156102125780601f106101e957610100808354040283529160200191610212565b820191905f5260205f20905b8154815290600101906020018083116101f557829003601f168201915b5050505050905082565b5f6020828403121561022c575f80fd5b5035919050565b5f81518084525f5b818110156102575760208185018101518683018201520161023b565b505f602082860101526020601f19601f83011685010191505092915050565b604081525f6102886040830185610233565b828103602084015261029a8185610233565b95945050505050565b5f826102bd57634e487b7160e01b5f52601260045260245ffd5b500690565b600181811c908216806102d657607f821691505b6020821081036102f457634e487b7160e01b5f52602260045260245ffd5b5091905056fea2646970667358221220dc9d59f5ea581fc36d07c4b7b128c80e1bae5598a2afb4cae8b8c41a16bc718364736f6c63430008160033",
			"opcodes": "PUSH1 0xA PUSH1 0xC0 DUP2 DUP2 MSTORE PUSH10 0x3638333935383239344B PUSH1 0xB0 SHL PUSH1 0xE0 MSTORE PUSH1 0x80 DUP2 DUP2 MSTORE PUSH2 0x140 PUSH1 0x40 MSTORE PUSH2 0x100 SWAP3 DUP4 MSTORE PUSH10 0x31322F30362F32303233 PUSH1 0xB0 SHL PUSH2 0x120 MSTORE PUSH1 0xA0 SWAP3 SWAP1 SWAP3 MSTORE PUSH1 0x1 SWAP1 DUP2 SWAP1 PUSH2 0x4F SWAP1 DUP3 PUSH2 0x130 JUMP JUMPDEST POP PUSH1 0x20 DUP3 ADD MLOAD PUSH1 0x1 DUP3 ADD SWAP1 PUSH2 0x64 SWAP1 DUP3 PUSH2 0x130 JUMP JUMPDEST POP POP POP CALLVALUE DUP1 ISZERO PUSH2 0x72 JUMPI PUSH0 DUP1 REVERT JUMPDEST POP PUSH1 0x40 MLOAD PUSH2 0x543 CODESIZE SUB DUP1 PUSH2 0x543 DUP4 CODECOPY DUP2 ADD PUSH1 0x40 DUP2 SWAP1 MSTORE PUSH2 0x91 SWAP2 PUSH2 0x1EF JUMP JUMPDEST PUSH0 SSTORE PUSH2 0x206 JUMP JUMPDEST PUSH4 0x4E487B71 PUSH1 0xE0 SHL PUSH0 MSTORE PUSH1 0x41 PUSH1 0x4 MSTORE PUSH1 0x24 PUSH0 REVERT JUMPDEST PUSH1 0x1 DUP2 DUP2 SHR SWAP1 DUP3 AND DUP1 PUSH2 0xC0 JUMPI PUSH1 0x7F DUP3 AND SWAP2 POP JUMPDEST PUSH1 0x20 DUP3 LT DUP2 SUB PUSH2 0xDE JUMPI PUSH4 0x4E487B71 PUSH1 0xE0 SHL PUSH0 MSTORE PUSH1 0x22 PUSH1 0x4 MSTORE PUSH1 0x24 PUSH0 REVERT JUMPDEST POP SWAP2 SWAP1 POP JUMP JUMPDEST PUSH1 0x1F DUP3 GT ISZERO PUSH2 0x12B JUMPI DUP1 PUSH0 MSTORE PUSH1 0x20 PUSH0 KECCAK256 PUSH1 0x1F DUP5 ADD PUSH1 0x5 SHR DUP2 ADD PUSH1 0x20 DUP6 LT ISZERO PUSH2 0x109 JUMPI POP DUP1 JUMPDEST PUSH1 0x1F DUP5 ADD PUSH1 0x5 SHR DUP3 ADD SWAP2 POP JUMPDEST DUP2 DUP2 LT ISZERO PUSH2 0x128 JUMPI PUSH0 DUP2 SSTORE PUSH1 0x1 ADD PUSH2 0x115 JUMP JUMPDEST POP POP JUMPDEST POP POP POP JUMP JUMPDEST DUP2 MLOAD PUSH1 0x1 PUSH1 0x1 PUSH1 0x40 SHL SUB DUP2 GT ISZERO PUSH2 0x149 JUMPI PUSH2 0x149 PUSH2 0x98 JUMP JUMPDEST PUSH2 0x15D DUP2 PUSH2 0x157 DUP5 SLOAD PUSH2 0xAC JUMP JUMPDEST DUP5 PUSH2 0xE4 JUMP JUMPDEST PUSH1 0x20 DUP1 PUSH1 0x1F DUP4 GT PUSH1 0x1 DUP2 EQ PUSH2 0x190 JUMPI PUSH0 DUP5 ISZERO PUSH2 0x179 JUMPI POP DUP6 DUP4 ADD MLOAD JUMPDEST PUSH0 NOT PUSH1 0x3 DUP7 SWAP1 SHL SHR NOT AND PUSH1 0x1 DUP6 SWAP1 SHL OR DUP6 SSTORE PUSH2 0x1E7 JUMP JUMPDEST PUSH0 DUP6 DUP2 MSTORE PUSH1 0x20 DUP2 KECCAK256 PUSH1 0x1F NOT DUP7 AND SWAP2 JUMPDEST DUP3 DUP2 LT ISZERO PUSH2 0x1BE JUMPI DUP9 DUP7 ADD MLOAD DUP3 SSTORE SWAP5 DUP5 ADD SWAP5 PUSH1 0x1 SWAP1 SWAP2 ADD SWAP1 DUP5 ADD PUSH2 0x19F JUMP JUMPDEST POP DUP6 DUP3 LT ISZERO PUSH2 0x1DB JUMPI DUP8 DUP6 ADD MLOAD PUSH0 NOT PUSH1 0x3 DUP9 SWAP1 SHL PUSH1 0xF8 AND SHR NOT AND DUP2 SSTORE JUMPDEST POP POP PUSH1 0x1 DUP5 PUSH1 0x1 SHL ADD DUP6 SSTORE JUMPDEST POP POP POP POP POP POP JUMP JUMPDEST PUSH0 PUSH1 0x20 DUP3 DUP5 SUB SLT ISZERO PUSH2 0x1FF JUMPI PUSH0 DUP1 REVERT JUMPDEST POP MLOAD SWAP2 SWAP1 POP JUMP JUMPDEST PUSH2 0x330 DUP1 PUSH2 0x213 PUSH0 CODECOPY PUSH0 RETURN INVALID PUSH1 0x80 PUSH1 0x40 MSTORE CALLVALUE DUP1 ISZERO PUSH2 0xF JUMPI PUSH0 DUP1 REVERT JUMPDEST POP PUSH1 0x4 CALLDATASIZE LT PUSH2 0x4A JUMPI PUSH0 CALLDATALOAD PUSH1 0xE0 SHR DUP1 PUSH4 0x733476CA EQ PUSH2 0x4E JUMPI DUP1 PUSH4 0x98548951 EQ PUSH2 0x76 JUMPI DUP1 PUSH4 0xA5CC8804 EQ PUSH2 0x8C JUMPI DUP1 PUSH4 0xD270BC95 EQ PUSH2 0x9D JUMPI JUMPDEST PUSH0 DUP1 REVERT JUMPDEST PUSH2 0x61 PUSH2 0x5C CALLDATASIZE PUSH1 0x4 PUSH2 0x21C JUMP JUMPDEST PUSH2 0xA5 JUMP JUMPDEST PUSH1 0x40 MLOAD SWAP1 ISZERO ISZERO DUP2 MSTORE PUSH1 0x20 ADD JUMPDEST PUSH1 0x40 MLOAD DUP1 SWAP2 SUB SWAP1 RETURN JUMPDEST PUSH2 0x7E PUSH2 0x100 JUMP JUMPDEST PUSH1 0x40 MLOAD PUSH2 0x6D SWAP3 SWAP2 SWAP1 PUSH2 0x276 JUMP JUMPDEST PUSH0 SLOAD JUMPDEST PUSH1 0x40 MLOAD SWAP1 DUP2 MSTORE PUSH1 0x20 ADD PUSH2 0x6D JUMP JUMPDEST PUSH2 0x8F PUSH0 SLOAD DUP2 JUMP JUMPDEST PUSH0 PUSH2 0xB1 PUSH1 0x2 DUP4 PUSH2 0x2A3 JUMP JUMPDEST ISZERO PUSH2 0xF8 JUMPI PUSH1 0x40 MLOAD PUSH3 0x461BCD PUSH1 0xE5 SHL DUP2 MSTORE PUSH1 0x20 PUSH1 0x4 DUP3 ADD MSTORE PUSH1 0x13 PUSH1 0x24 DUP3 ADD MSTORE PUSH19 0x22B610373AB6B2B9379037379032B9903830B9 PUSH1 0x69 SHL PUSH1 0x44 DUP3 ADD MSTORE PUSH1 0x64 ADD PUSH1 0x40 MLOAD DUP1 SWAP2 SUB SWAP1 REVERT JUMPDEST POP PUSH1 0x1 SWAP2 SWAP1 POP JUMP JUMPDEST PUSH1 0x1 DUP1 SLOAD DUP2 SWAP1 PUSH2 0x10F SWAP1 PUSH2 0x2C2 JUMP JUMPDEST DUP1 PUSH1 0x1F ADD PUSH1 0x20 DUP1 SWAP2 DIV MUL PUSH1 0x20 ADD PUSH1 0x40 MLOAD SWAP1 DUP2 ADD PUSH1 0x40 MSTORE DUP1 SWAP3 SWAP2 SWAP1 DUP2 DUP2 MSTORE PUSH1 0x20 ADD DUP3 DUP1 SLOAD PUSH2 0x13B SWAP1 PUSH2 0x2C2 JUMP JUMPDEST DUP1 ISZERO PUSH2 0x186 JUMPI DUP1 PUSH1 0x1F LT PUSH2 0x15D JUMPI PUSH2 0x100 DUP1 DUP4 SLOAD DIV MUL DUP4 MSTORE SWAP2 PUSH1 0x20 ADD SWAP2 PUSH2 0x186 JUMP JUMPDEST DUP3 ADD SWAP2 SWAP1 PUSH0 MSTORE PUSH1 0x20 PUSH0 KECCAK256 SWAP1 JUMPDEST DUP2 SLOAD DUP2 MSTORE SWAP1 PUSH1 0x1 ADD SWAP1 PUSH1 0x20 ADD DUP1 DUP4 GT PUSH2 0x169 JUMPI DUP3 SWAP1 SUB PUSH1 0x1F AND DUP3 ADD SWAP2 JUMPDEST POP POP POP POP POP SWAP1 DUP1 PUSH1 0x1 ADD DUP1 SLOAD PUSH2 0x19B SWAP1 PUSH2 0x2C2 JUMP JUMPDEST DUP1 PUSH1 0x1F ADD PUSH1 0x20 DUP1 SWAP2 DIV MUL PUSH1 0x20 ADD PUSH1 0x40 MLOAD SWAP1 DUP2 ADD PUSH1 0x40 MSTORE DUP1 SWAP3 SWAP2 SWAP1 DUP2 DUP2 MSTORE PUSH1 0x20 ADD DUP3 DUP1 SLOAD PUSH2 0x1C7 SWAP1 PUSH2 0x2C2 JUMP JUMPDEST DUP1 ISZERO PUSH2 0x212 JUMPI DUP1 PUSH1 0x1F LT PUSH2 0x1E9 JUMPI PUSH2 0x100 DUP1 DUP4 SLOAD DIV MUL DUP4 MSTORE SWAP2 PUSH1 0x20 ADD SWAP2 PUSH2 0x212 JUMP JUMPDEST DUP3 ADD SWAP2 SWAP1 PUSH0 MSTORE PUSH1 0x20 PUSH0 KECCAK256 SWAP1 JUMPDEST DUP2 SLOAD DUP2 MSTORE SWAP1 PUSH1 0x1 ADD SWAP1 PUSH1 0x20 ADD DUP1 DUP4 GT PUSH2 0x1F5 JUMPI DUP3 SWAP1 SUB PUSH1 0x1F AND DUP3 ADD SWAP2 JUMPDEST POP POP POP POP POP SWAP1 POP DUP3 JUMP JUMPDEST PUSH0 PUSH1 0x20 DUP3 DUP5 SUB SLT ISZERO PUSH2 0x22C JUMPI PUSH0 DUP1 REVERT JUMPDEST POP CALLDATALOAD SWAP2 SWAP1 POP JUMP JUMPDEST PUSH0 DUP2 MLOAD DUP1 DUP5 MSTORE PUSH0 JUMPDEST DUP2 DUP2 LT ISZERO PUSH2 0x257 JUMPI PUSH1 0x20 DUP2 DUP6 ADD DUP2 ADD MLOAD DUP7 DUP4 ADD DUP3 ADD MSTORE ADD PUSH2 0x23B JUMP JUMPDEST POP PUSH0 PUSH1 0x20 DUP3 DUP7 ADD ADD MSTORE PUSH1 0x20 PUSH1 0x1F NOT PUSH1 0x1F DUP4 ADD AND DUP6 ADD ADD SWAP2 POP POP SWAP3 SWAP2 POP POP JUMP JUMPDEST PUSH1 0x40 DUP2 MSTORE PUSH0 PUSH2 0x288 PUSH1 0x40 DUP4 ADD DUP6 PUSH2 0x233 JUMP JUMPDEST DUP3 DUP2 SUB PUSH1 0x20 DUP5 ADD MSTORE PUSH2 0x29A DUP2 DUP6 PUSH2 0x233 JUMP JUMPDEST SWAP6 SWAP5 POP POP POP POP POP JUMP JUMPDEST PUSH0 DUP3 PUSH2 0x2BD JUMPI PUSH4 0x4E487B71 PUSH1 0xE0 SHL PUSH0 MSTORE PUSH1 0x12 PUSH1 0x4 MSTORE PUSH1 0x24 PUSH0 REVERT JUMPDEST POP MOD SWAP1 JUMP JUMPDEST PUSH1 0x1 DUP2 DUP2 SHR SWAP1 DUP3 AND DUP1 PUSH2 0x2D6 JUMPI PUSH1 0x7F DUP3 AND SWAP2 POP JUMPDEST PUSH1 0x20 DUP3 LT DUP2 SUB PUSH2 0x2F4 JUMPI PUSH4 0x4E487B71 PUSH1 0xE0 SHL PUSH0 MSTORE PUSH1 0x22 PUSH1 0x4 MSTORE PUSH1 0x24 PUSH0 REVERT JUMPDEST POP SWAP2 SWAP1 POP JUMP INVALID LOG2 PUSH5 0x6970667358 0x22 SLT KECCAK256 0xDC SWAP14 MSIZE CREATE2 0xEA PC 0x1F 0xC3 PUSH14 0x7C4B7B128C80E1BAE5598A2AFB4 0xCA 0xE8 0xB8 0xC4 BYTE AND 0xBC PUSH18 0x8364736F6C63430008160033000000000000 "
		},
		"gasEstimates": {
			"creation": {
				"codeDepositCost": "163200",
				"executionCost": "infinite",
				"totalCost": "infinite"
			},
			"external": {
				"cantidadPar(uint256)": "376",
				"coche1()": "infinite",
				"obtenerSuministro()": "2301",
				"suministroInicialTokens()": "2337"
			}
		},
		"methodIdentifiers": {
			"cantidadPar(uint256)": "733476ca",
			"coche1()": "98548951",
			"obtenerSuministro()": "a5cc8804",
			"suministroInicialTokens()": "d270bc95"
		}
	},
	"abi": [
		{
			"inputs": [
				{
					"internalType": "uint256",
					"name": "suministro",
					"type": "uint256"
				}
			],
			"stateMutability": "nonpayable",
			"type": "constructor"
		},
		{
			"inputs": [
				{
					"internalType": "uint256",
					"name": "cantidad",
					"type": "uint256"
				}
			],
			"name": "cantidadPar",
			"outputs": [
				{
					"internalType": "bool",
					"name": "",
					"type": "bool"
				}
			],
			"stateMutability": "pure",
			"type": "function"
		},
		{
			"inputs": [],
			"name": "coche1",
			"outputs": [
				{
					"internalType": "string",
					"name": "matricula",
					"type": "string"
				},
				{
					"internalType": "string",
					"name": "fechaFabricacion",
					"type": "string"
				}
			],
			"stateMutability": "view",
			"type": "function"
		},
		{
			"inputs": [],
			"name": "obtenerSuministro",
			"outputs": [
				{
					"internalType": "uint256",
					"name": "",
					"type": "uint256"
				}
			],
			"stateMutability": "view",
			"type": "function"
		},
		{
			"inputs": [],
			"name": "suministroInicialTokens",
			"outputs": [
				{
					"internalType": "uint256",
					"name": "",
					"type": "uint256"
				}
			],
			"stateMutability": "view",
			"type": "function"
		}
	]
}