{
	"data": {
		"bytecode": {
			"linkReferences": {},
			"object": "608060405234801561000f575f80fd5b505f80546001600160a01b031916331790556105f58061002e5f395ff3fe608060405234801561000f575f80fd5b506004361061004a575f3560e01c80630532cde11461004e5780633c4f81cd14610079578063748bd104146100a3578063a35fe0b6146100b6575b5f80fd5b61006161005c366004610338565b6100cb565b6040516100709392919061034f565b60405180910390f35b5f5461008b906001600160a01b031681565b6040516001600160a01b039091168152602001610070565b6100616100b1366004610338565b610172565b6100c96100c43660046103be565b61022c565b005b600160208190525f9182526040909120805491810180546100eb9061047b565b80601f01602080910402602001604051908101604052809291908181526020018280546101179061047b565b80156101625780601f1061013957610100808354040283529160200191610162565b820191905f5260205f20905b81548152906001019060200180831161014557829003601f168201915b5050505050908060020154905083565b5f818152600160208190526040822080546002820154919092018054606093859390929182906101a19061047b565b80601f01602080910402602001604051908101604052809291908181526020018280546101cd9061047b565b80156102185780601f106101ef57610100808354040283529160200191610218565b820191905f5260205f20905b8154815290600101906020018083116101fb57829003601f168201915b505050505091509250925092509193909250565b5f546001600160a01b0316331461028a5760405162461bcd60e51b815260206004820152601d60248201527f4572726f723a204e6f206572657320656c2070726f706965746172696f00000060448201526064015b60405180910390fd5b5f83815260016020526040902054156102e55760405162461bcd60e51b815260206004820152601c60248201527f4572726f723a20456c20656d706c6561646f20796120657869737465000000006044820152606401610281565b6040805160608101825284815260208082018581528284018590525f878152600192839052939093208251815592519192919082019061032590826104ff565b5060408201518160020155905050505050565b5f60208284031215610348575f80fd5b5035919050565b8381525f60206060602084015284518060608501525f5b8181101561038257868101830151858201608001528201610366565b505f608082860101526080601f19601f83011685010192505050826040830152949350505050565b634e487b7160e01b5f52604160045260245ffd5b5f805f606084860312156103d0575f80fd5b83359250602084013567ffffffffffffffff808211156103ee575f80fd5b818601915086601f830112610401575f80fd5b813581811115610413576104136103aa565b604051601f8201601f19908116603f0116810190838211818310171561043b5761043b6103aa565b81604052828152896020848701011115610453575f80fd5b826020860160208301375f602084830101528096505050505050604084013590509250925092565b600181811c9082168061048f57607f821691505b6020821081036104ad57634e487b7160e01b5f52602260045260245ffd5b50919050565b601f8211156104fa57805f5260205f20601f840160051c810160208510156104d85750805b601f840160051c820191505b818110156104f7575f81556001016104e4565b50505b505050565b815167ffffffffffffffff811115610519576105196103aa565b61052d81610527845461047b565b846104b3565b602080601f831160018114610560575f84156105495750858301515b5f19600386901b1c1916600185901b1785556105b7565b5f85815260208120601f198616915b8281101561058e5788860151825594840194600190910190840161056f565b50858210156105ab57878501515f19600388901b60f8161c191681555b505060018460011b0185555b50505050505056fea26469706673582212200f4712c6ba9e0e1b4ae4878a15e14cdbc6dfb1c313093e3b73c481dccf70bb4a64736f6c63430008170033",
			"opcodes": "PUSH1 0x80 PUSH1 0x40 MSTORE CALLVALUE DUP1 ISZERO PUSH2 0xF JUMPI PUSH0 DUP1 REVERT JUMPDEST POP PUSH0 DUP1 SLOAD PUSH1 0x1 PUSH1 0x1 PUSH1 0xA0 SHL SUB NOT AND CALLER OR SWAP1 SSTORE PUSH2 0x5F5 DUP1 PUSH2 0x2E PUSH0 CODECOPY PUSH0 RETURN INVALID PUSH1 0x80 PUSH1 0x40 MSTORE CALLVALUE DUP1 ISZERO PUSH2 0xF JUMPI PUSH0 DUP1 REVERT JUMPDEST POP PUSH1 0x4 CALLDATASIZE LT PUSH2 0x4A JUMPI PUSH0 CALLDATALOAD PUSH1 0xE0 SHR DUP1 PUSH4 0x532CDE1 EQ PUSH2 0x4E JUMPI DUP1 PUSH4 0x3C4F81CD EQ PUSH2 0x79 JUMPI DUP1 PUSH4 0x748BD104 EQ PUSH2 0xA3 JUMPI DUP1 PUSH4 0xA35FE0B6 EQ PUSH2 0xB6 JUMPI JUMPDEST PUSH0 DUP1 REVERT JUMPDEST PUSH2 0x61 PUSH2 0x5C CALLDATASIZE PUSH1 0x4 PUSH2 0x338 JUMP JUMPDEST PUSH2 0xCB JUMP JUMPDEST PUSH1 0x40 MLOAD PUSH2 0x70 SWAP4 SWAP3 SWAP2 SWAP1 PUSH2 0x34F JUMP JUMPDEST PUSH1 0x40 MLOAD DUP1 SWAP2 SUB SWAP1 RETURN JUMPDEST PUSH0 SLOAD PUSH2 0x8B SWAP1 PUSH1 0x1 PUSH1 0x1 PUSH1 0xA0 SHL SUB AND DUP2 JUMP JUMPDEST PUSH1 0x40 MLOAD PUSH1 0x1 PUSH1 0x1 PUSH1 0xA0 SHL SUB SWAP1 SWAP2 AND DUP2 MSTORE PUSH1 0x20 ADD PUSH2 0x70 JUMP JUMPDEST PUSH2 0x61 PUSH2 0xB1 CALLDATASIZE PUSH1 0x4 PUSH2 0x338 JUMP JUMPDEST PUSH2 0x172 JUMP JUMPDEST PUSH2 0xC9 PUSH2 0xC4 CALLDATASIZE PUSH1 0x4 PUSH2 0x3BE JUMP JUMPDEST PUSH2 0x22C JUMP JUMPDEST STOP JUMPDEST PUSH1 0x1 PUSH1 0x20 DUP2 SWAP1 MSTORE PUSH0 SWAP2 DUP3 MSTORE PUSH1 0x40 SWAP1 SWAP2 KECCAK256 DUP1 SLOAD SWAP2 DUP2 ADD DUP1 SLOAD PUSH2 0xEB SWAP1 PUSH2 0x47B JUMP JUMPDEST DUP1 PUSH1 0x1F ADD PUSH1 0x20 DUP1 SWAP2 DIV MUL PUSH1 0x20 ADD PUSH1 0x40 MLOAD SWAP1 DUP2 ADD PUSH1 0x40 MSTORE DUP1 SWAP3 SWAP2 SWAP1 DUP2 DUP2 MSTORE PUSH1 0x20 ADD DUP3 DUP1 SLOAD PUSH2 0x117 SWAP1 PUSH2 0x47B JUMP JUMPDEST DUP1 ISZERO PUSH2 0x162 JUMPI DUP1 PUSH1 0x1F LT PUSH2 0x139 JUMPI PUSH2 0x100 DUP1 DUP4 SLOAD DIV MUL DUP4 MSTORE SWAP2 PUSH1 0x20 ADD SWAP2 PUSH2 0x162 JUMP JUMPDEST DUP3 ADD SWAP2 SWAP1 PUSH0 MSTORE PUSH1 0x20 PUSH0 KECCAK256 SWAP1 JUMPDEST DUP2 SLOAD DUP2 MSTORE SWAP1 PUSH1 0x1 ADD SWAP1 PUSH1 0x20 ADD DUP1 DUP4 GT PUSH2 0x145 JUMPI DUP3 SWAP1 SUB PUSH1 0x1F AND DUP3 ADD SWAP2 JUMPDEST POP POP POP POP POP SWAP1 DUP1 PUSH1 0x2 ADD SLOAD SWAP1 POP DUP4 JUMP JUMPDEST PUSH0 DUP2 DUP2 MSTORE PUSH1 0x1 PUSH1 0x20 DUP2 SWAP1 MSTORE PUSH1 0x40 DUP3 KECCAK256 DUP1 SLOAD PUSH1 0x2 DUP3 ADD SLOAD SWAP2 SWAP1 SWAP3 ADD DUP1 SLOAD PUSH1 0x60 SWAP4 DUP6 SWAP4 SWAP1 SWAP3 SWAP2 DUP3 SWAP1 PUSH2 0x1A1 SWAP1 PUSH2 0x47B JUMP JUMPDEST DUP1 PUSH1 0x1F ADD PUSH1 0x20 DUP1 SWAP2 DIV MUL PUSH1 0x20 ADD PUSH1 0x40 MLOAD SWAP1 DUP2 ADD PUSH1 0x40 MSTORE DUP1 SWAP3 SWAP2 SWAP1 DUP2 DUP2 MSTORE PUSH1 0x20 ADD DUP3 DUP1 SLOAD PUSH2 0x1CD SWAP1 PUSH2 0x47B JUMP JUMPDEST DUP1 ISZERO PUSH2 0x218 JUMPI DUP1 PUSH1 0x1F LT PUSH2 0x1EF JUMPI PUSH2 0x100 DUP1 DUP4 SLOAD DIV MUL DUP4 MSTORE SWAP2 PUSH1 0x20 ADD SWAP2 PUSH2 0x218 JUMP JUMPDEST DUP3 ADD SWAP2 SWAP1 PUSH0 MSTORE PUSH1 0x20 PUSH0 KECCAK256 SWAP1 JUMPDEST DUP2 SLOAD DUP2 MSTORE SWAP1 PUSH1 0x1 ADD SWAP1 PUSH1 0x20 ADD DUP1 DUP4 GT PUSH2 0x1FB JUMPI DUP3 SWAP1 SUB PUSH1 0x1F AND DUP3 ADD SWAP2 JUMPDEST POP POP POP POP POP SWAP2 POP SWAP3 POP SWAP3 POP SWAP3 POP SWAP2 SWAP4 SWAP1 SWAP3 POP JUMP JUMPDEST PUSH0 SLOAD PUSH1 0x1 PUSH1 0x1 PUSH1 0xA0 SHL SUB AND CALLER EQ PUSH2 0x28A JUMPI PUSH1 0x40 MLOAD PUSH3 0x461BCD PUSH1 0xE5 SHL DUP2 MSTORE PUSH1 0x20 PUSH1 0x4 DUP3 ADD MSTORE PUSH1 0x1D PUSH1 0x24 DUP3 ADD MSTORE PUSH32 0x4572726F723A204E6F206572657320656C2070726F706965746172696F000000 PUSH1 0x44 DUP3 ADD MSTORE PUSH1 0x64 ADD JUMPDEST PUSH1 0x40 MLOAD DUP1 SWAP2 SUB SWAP1 REVERT JUMPDEST PUSH0 DUP4 DUP2 MSTORE PUSH1 0x1 PUSH1 0x20 MSTORE PUSH1 0x40 SWAP1 KECCAK256 SLOAD ISZERO PUSH2 0x2E5 JUMPI PUSH1 0x40 MLOAD PUSH3 0x461BCD PUSH1 0xE5 SHL DUP2 MSTORE PUSH1 0x20 PUSH1 0x4 DUP3 ADD MSTORE PUSH1 0x1C PUSH1 0x24 DUP3 ADD MSTORE PUSH32 0x4572726F723A20456C20656D706C6561646F2079612065786973746500000000 PUSH1 0x44 DUP3 ADD MSTORE PUSH1 0x64 ADD PUSH2 0x281 JUMP JUMPDEST PUSH1 0x40 DUP1 MLOAD PUSH1 0x60 DUP2 ADD DUP3 MSTORE DUP5 DUP2 MSTORE PUSH1 0x20 DUP1 DUP3 ADD DUP6 DUP2 MSTORE DUP3 DUP5 ADD DUP6 SWAP1 MSTORE PUSH0 DUP8 DUP2 MSTORE PUSH1 0x1 SWAP3 DUP4 SWAP1 MSTORE SWAP4 SWAP1 SWAP4 KECCAK256 DUP3 MLOAD DUP2 SSTORE SWAP3 MLOAD SWAP2 SWAP3 SWAP2 SWAP1 DUP3 ADD SWAP1 PUSH2 0x325 SWAP1 DUP3 PUSH2 0x4FF JUMP JUMPDEST POP PUSH1 0x40 DUP3 ADD MLOAD DUP2 PUSH1 0x2 ADD SSTORE SWAP1 POP POP POP POP POP JUMP JUMPDEST PUSH0 PUSH1 0x20 DUP3 DUP5 SUB SLT ISZERO PUSH2 0x348 JUMPI PUSH0 DUP1 REVERT JUMPDEST POP CALLDATALOAD SWAP2 SWAP1 POP JUMP JUMPDEST DUP4 DUP2 MSTORE PUSH0 PUSH1 0x20 PUSH1 0x60 PUSH1 0x20 DUP5 ADD MSTORE DUP5 MLOAD DUP1 PUSH1 0x60 DUP6 ADD MSTORE PUSH0 JUMPDEST DUP2 DUP2 LT ISZERO PUSH2 0x382 JUMPI DUP7 DUP2 ADD DUP4 ADD MLOAD DUP6 DUP3 ADD PUSH1 0x80 ADD MSTORE DUP3 ADD PUSH2 0x366 JUMP JUMPDEST POP PUSH0 PUSH1 0x80 DUP3 DUP7 ADD ADD MSTORE PUSH1 0x80 PUSH1 0x1F NOT PUSH1 0x1F DUP4 ADD AND DUP6 ADD ADD SWAP3 POP POP POP DUP3 PUSH1 0x40 DUP4 ADD MSTORE SWAP5 SWAP4 POP POP POP POP JUMP JUMPDEST PUSH4 0x4E487B71 PUSH1 0xE0 SHL PUSH0 MSTORE PUSH1 0x41 PUSH1 0x4 MSTORE PUSH1 0x24 PUSH0 REVERT JUMPDEST PUSH0 DUP1 PUSH0 PUSH1 0x60 DUP5 DUP7 SUB SLT ISZERO PUSH2 0x3D0 JUMPI PUSH0 DUP1 REVERT JUMPDEST DUP4 CALLDATALOAD SWAP3 POP PUSH1 0x20 DUP5 ADD CALLDATALOAD PUSH8 0xFFFFFFFFFFFFFFFF DUP1 DUP3 GT ISZERO PUSH2 0x3EE JUMPI PUSH0 DUP1 REVERT JUMPDEST DUP2 DUP7 ADD SWAP2 POP DUP7 PUSH1 0x1F DUP4 ADD SLT PUSH2 0x401 JUMPI PUSH0 DUP1 REVERT JUMPDEST DUP2 CALLDATALOAD DUP2 DUP2 GT ISZERO PUSH2 0x413 JUMPI PUSH2 0x413 PUSH2 0x3AA JUMP JUMPDEST PUSH1 0x40 MLOAD PUSH1 0x1F DUP3 ADD PUSH1 0x1F NOT SWAP1 DUP2 AND PUSH1 0x3F ADD AND DUP2 ADD SWAP1 DUP4 DUP3 GT DUP2 DUP4 LT OR ISZERO PUSH2 0x43B JUMPI PUSH2 0x43B PUSH2 0x3AA JUMP JUMPDEST DUP2 PUSH1 0x40 MSTORE DUP3 DUP2 MSTORE DUP10 PUSH1 0x20 DUP5 DUP8 ADD ADD GT ISZERO PUSH2 0x453 JUMPI PUSH0 DUP1 REVERT JUMPDEST DUP3 PUSH1 0x20 DUP7 ADD PUSH1 0x20 DUP4 ADD CALLDATACOPY PUSH0 PUSH1 0x20 DUP5 DUP4 ADD ADD MSTORE DUP1 SWAP7 POP POP POP POP POP POP PUSH1 0x40 DUP5 ADD CALLDATALOAD SWAP1 POP SWAP3 POP SWAP3 POP SWAP3 JUMP JUMPDEST PUSH1 0x1 DUP2 DUP2 SHR SWAP1 DUP3 AND DUP1 PUSH2 0x48F JUMPI PUSH1 0x7F DUP3 AND SWAP2 POP JUMPDEST PUSH1 0x20 DUP3 LT DUP2 SUB PUSH2 0x4AD JUMPI PUSH4 0x4E487B71 PUSH1 0xE0 SHL PUSH0 MSTORE PUSH1 0x22 PUSH1 0x4 MSTORE PUSH1 0x24 PUSH0 REVERT JUMPDEST POP SWAP2 SWAP1 POP JUMP JUMPDEST PUSH1 0x1F DUP3 GT ISZERO PUSH2 0x4FA JUMPI DUP1 PUSH0 MSTORE PUSH1 0x20 PUSH0 KECCAK256 PUSH1 0x1F DUP5 ADD PUSH1 0x5 SHR DUP2 ADD PUSH1 0x20 DUP6 LT ISZERO PUSH2 0x4D8 JUMPI POP DUP1 JUMPDEST PUSH1 0x1F DUP5 ADD PUSH1 0x5 SHR DUP3 ADD SWAP2 POP JUMPDEST DUP2 DUP2 LT ISZERO PUSH2 0x4F7 JUMPI PUSH0 DUP2 SSTORE PUSH1 0x1 ADD PUSH2 0x4E4 JUMP JUMPDEST POP POP JUMPDEST POP POP POP JUMP JUMPDEST DUP2 MLOAD PUSH8 0xFFFFFFFFFFFFFFFF DUP2 GT ISZERO PUSH2 0x519 JUMPI PUSH2 0x519 PUSH2 0x3AA JUMP JUMPDEST PUSH2 0x52D DUP2 PUSH2 0x527 DUP5 SLOAD PUSH2 0x47B JUMP JUMPDEST DUP5 PUSH2 0x4B3 JUMP JUMPDEST PUSH1 0x20 DUP1 PUSH1 0x1F DUP4 GT PUSH1 0x1 DUP2 EQ PUSH2 0x560 JUMPI PUSH0 DUP5 ISZERO PUSH2 0x549 JUMPI POP DUP6 DUP4 ADD MLOAD JUMPDEST PUSH0 NOT PUSH1 0x3 DUP7 SWAP1 SHL SHR NOT AND PUSH1 0x1 DUP6 SWAP1 SHL OR DUP6 SSTORE PUSH2 0x5B7 JUMP JUMPDEST PUSH0 DUP6 DUP2 MSTORE PUSH1 0x20 DUP2 KECCAK256 PUSH1 0x1F NOT DUP7 AND SWAP2 JUMPDEST DUP3 DUP2 LT ISZERO PUSH2 0x58E JUMPI DUP9 DUP7 ADD MLOAD DUP3 SSTORE SWAP5 DUP5 ADD SWAP5 PUSH1 0x1 SWAP1 SWAP2 ADD SWAP1 DUP5 ADD PUSH2 0x56F JUMP JUMPDEST POP DUP6 DUP3 LT ISZERO PUSH2 0x5AB JUMPI DUP8 DUP6 ADD MLOAD PUSH0 NOT PUSH1 0x3 DUP9 SWAP1 SHL PUSH1 0xF8 AND SHR NOT AND DUP2 SSTORE JUMPDEST POP POP PUSH1 0x1 DUP5 PUSH1 0x1 SHL ADD DUP6 SSTORE JUMPDEST POP POP POP POP POP POP JUMP INVALID LOG2 PUSH5 0x6970667358 0x22 SLT KECCAK256 0xF SELFBALANCE SLT 0xC6 0xBA SWAP15 0xE SHL 0x4A 0xE4 DUP8 DUP11 ISZERO 0xE1 0x4C 0xDB 0xC6 0xDF 0xB1 0xC3 SGT MULMOD RETURNDATACOPY EXTCODESIZE PUSH20 0xC481DCCF70BB4A64736F6C634300081700330000 "
		},
		"gasEstimates": {
			"creation": {
				"codeDepositCost": "305000",
				"executionCost": "24575",
				"totalCost": "329575"
			},
			"external": {
				"agregarEmpleado(uint256,string,uint256)": "infinite",
				"empleados(uint256)": "infinite",
				"obtenerEmpleado(uint256)": "infinite",
				"propietario()": "2335"
			}
		},
		"methodIdentifiers": {
			"agregarEmpleado(uint256,string,uint256)": "a35fe0b6",
			"empleados(uint256)": "0532cde1",
			"obtenerEmpleado(uint256)": "748bd104",
			"propietario()": "3c4f81cd"
		}
	},
	"abi": [
		{
			"inputs": [],
			"stateMutability": "nonpayable",
			"type": "constructor"
		},
		{
			"inputs": [
				{
					"internalType": "uint256",
					"name": "_idEmpleado",
					"type": "uint256"
				},
				{
					"internalType": "string",
					"name": "_nombre",
					"type": "string"
				},
				{
					"internalType": "uint256",
					"name": "_salario",
					"type": "uint256"
				}
			],
			"name": "agregarEmpleado",
			"outputs": [],
			"stateMutability": "nonpayable",
			"type": "function"
		},
		{
			"inputs": [
				{
					"internalType": "uint256",
					"name": "",
					"type": "uint256"
				}
			],
			"name": "empleados",
			"outputs": [
				{
					"internalType": "uint256",
					"name": "idEmpleado",
					"type": "uint256"
				},
				{
					"internalType": "string",
					"name": "nombre",
					"type": "string"
				},
				{
					"internalType": "uint256",
					"name": "salario",
					"type": "uint256"
				}
			],
			"stateMutability": "view",
			"type": "function"
		},
		{
			"inputs": [
				{
					"internalType": "uint256",
					"name": "_idEmpleado",
					"type": "uint256"
				}
			],
			"name": "obtenerEmpleado",
			"outputs": [
				{
					"internalType": "uint256",
					"name": "",
					"type": "uint256"
				},
				{
					"internalType": "string",
					"name": "",
					"type": "string"
				},
				{
					"internalType": "uint256",
					"name": "",
					"type": "uint256"
				}
			],
			"stateMutability": "view",
			"type": "function"
		},
		{
			"inputs": [],
			"name": "propietario",
			"outputs": [
				{
					"internalType": "address",
					"name": "",
					"type": "address"
				}
			],
			"stateMutability": "view",
			"type": "function"
		}
	]
}